:020000040000FA
:100000000C94A8000C94D0000C94D0000C94D00058
:100010000C94D0000C94D0000C94D0000C94D00020
:100020000C94D0000C94D0000C94D0000C94D00010
:100030000C94D0000C94D0000C94D0000C94D00000
:100040000C94DF0E0C94D0000C94AD0E0C94870E23
:100050000C94D0000C94D0000C94D0000C94D000E0
:100060000C94290F0C94D000036EDB363D9A9999BD
:10007000993DABAAAA2A3E000000803F072C7AA532
:10008000BA6CC590DA3B9365FC8BBC53F810FD3C11
:100090005692834DBD879D3AB63DCBC9BF5BBE73BB
:1000A000DA0FC93F05A84CCDB2D44EB93836A902F3
:1000B0000C50B9918688083CA6AAAA2ABE00000066
:1000C000803F0664EC1B3C04BC163E3BE5B93CC9D2
:1000D0003C37C29E5A3D660498083EEA69AAAA3E89
:1000E000000000803F001F1C1F1E1F1E1F1F1E1F21
:1000F0001E1F00000000240027002A00000000004E
:10010000250028002B000000000023002600290005
:1001100000000008000201000003040700000000C6
:1001200000000000040404040404040402020202A7
:1001300002020303030303030102040810204080AA
:1001400001020408102001020408102048105A1B64
:1001500011241FBECFEFD8E0DEBFCDBF25E0A0E564
:10016000B3E001C01D92A131B207E1F713E0A0E0B6
:10017000B1E0E0E4F4E402C005900D92A035B107CF
:10018000D9F710E0C7EAD0E004C02197FE010E9431
:100190001B20C63AD107C9F70E9435110C941322CF
:1001A0000C940000CF92DF92EF92FF92CF93DF93F7
:1001B000B091E304A0E08111AB2F8091E40490E0C2
:1001C000880F991FAC014A5F5E4FC090E904D09040
:1001D000EA04E090EB04F090EC0430E020E0FA0157
:1001E000C591D491E881B90190E080E0EB23EA1356
:1001F0000AC02F5F3F4F6C157D058E059F0578F374
:100200006FEF7FEFCB01DF91CF91FF90EF90DF9009
:10021000CF90089508950895AF92BF92CF92DF9244
:10022000EF92FF920F931F93CF93DF936C017B01AB
:100230008B01040F151FEB015E01AE18BF08C0173C
:10024000D10759F06991D601ED91FC910190F081AF
:10025000E02DC6010995892B79F7C501DF91CF9172
:100260001F910F91FF90EF90DF90CF90BF90AF90D4
:100270000895FC01538D448D252F30E0842F90E0AC
:10028000821B930B541710F0CF9608950197089591
:10029000FC01918D828D981761F0A28DAE0FBF2F5A
:1002A000B11D5D968C91928D9F5F9F73928F90E0B0
:1002B00008958FEF9FEF0895FC01918D828D98171F
:1002C00031F0828DE80FF11D858D90E008958FEF5C
:1002D0009FEF0895FC01918D228D892F90E0805C25
:1002E0009F4F821B91098F739927089589E294E0AB
:1002F0000E946A0121E0892B09F420E0822F0895F1
:1003000080E090E0892B29F00E94760181110C9405
:1003100000000895FC01A48DA80FB92FB11DA35AA8
:10032000BF4F2C91848D90E001968F739927848F15
:10033000A689B7892C93A089B1898C918370806438
:100340008C93938D848D981306C00288F389E02DD9
:1003500080818F7D80830895EF92FF920F931F938A
:10036000CF93DF93EC0181E0888F9B8D8C8D981368
:100370001AC0E889F989808185FF15C09FB7F89474
:10038000EE89FF896083E889F989808183708064C0
:1003900080839FBF81E090E0DF91CF911F910F910B
:1003A000FF90EF900895F62E0B8D10E00F5F1F4F1A
:1003B0000F731127E02E8C8D8E110CC00FB607FC29
:1003C000FACFE889F989808185FFF5CFCE010E94B7
:1003D0008A01F1CFEB8DEC0FFD2FF11DE35AFF4F9A
:1003E000F0829FB7F8940B8FEA89FB898081806245
:1003F000CFCF682F89E294E00C94AC01CF93DF93C8
:10040000EC01888D8823B9F0AA89BB89E889F9892C
:100410008C9185FD03C0808186FD0DC00FB607FC61
:10042000F7CF8C9185FFF2CF808185FFEDCFCE0194
:100430000E948A01E9CFDF91CF910895833081F046
:1004400028F4813099F08230A9F008958730A9F01E
:100450008830C9F08430B1F4809180008F7D03C072
:10046000809180008F7780938000089584B58F7786
:1004700084BD089584B58F7DFBCF8091B0008F77C8
:100480008093B00008958091B0008F7DF9CF1F93C5
:10049000CF93DF93282F30E0F901E05FFE4F849186
:1004A000F901E85CFE4FD491F901EC5DFE4FC49177
:1004B000CC23A9F0162F81110E941E02EC2FF0E030
:1004C000EE0FFF1FE450FF4FA591B4918FB7F89442
:1004D000EC91111108C0D095DE23DC938FBFDF9122
:1004E000CF911F910895DE2BF8CFCF93DF9390E04B
:1004F000FC01E85CFE4F24918C5D9E4FFC018491D1
:100500008823D1F090E0880F991FFC01EE50FF4F37
:10051000A591B491FC01E450FF4FC591D491623094
:1005200071F49FB7F8943C91822F809583238C932C
:10053000E8812E2B28839FBFDF91CF9108958FB73D
:10054000F894EC912E2B2C938FBFF6CF3FB7F894F5
:100550008091950390919603A0919703B091980391
:1005600026B5A89B05C02F3F19F00196A11DB11D0E
:100570003FBFBA2FA92F982F8827BC01CD01620F4A
:10058000711D811D911D42E0660F771F881F991F05
:100590004A95D1F708958F929F92AF92BF92CF92D2
:1005A000DF92EF92FF924B015C010E94A6026B0169
:1005B0007C010E94A6026C197D098E099F09683E84
:1005C000734081059105A8F321E0821A9108A108E2
:1005D000B10888EEC80E83E0D81EE11CF11C81141E
:1005E0009104A104B10429F7FF90EF90DF90CF9020
:1005F000BF90AF909F908F900895CF92DF92EF922F
:10060000FF920F931F93CF93DF93CDB7DEB7C05404
:10061000D1400FB6F894DEBF0FBECDBF2FB7F89410
:100620008091250490912604A0912704B09128047C
:100630002FBF4091E5045091E6046091E70470916A
:10064000E8048C019D01041B150B260B370BB90127
:10065000A801403D57406105710590F48091ED047B
:10066000C05CDE4F0FB6F894DEBF0FBECDBFDF918A
:10067000CF911F910F91FF90EF90DF90CF90089551
:100680008093E5049093E604A093E704B093E80414
:100690001092E0041092DF041092DE041092DD0448
:1006A0001092DC0462E08091E1040E94750261E036
:1006B00070E080E090E00E94CB0261E08091E10474
:1006C0000E94750260E08091E1040E9447028091DF
:1006D000E2048551823020F58BE291E10197F1F738
:1006E00062E08091E1040E9475028091EE0490E046
:1006F0008230910538F0880F991F880F991F059750
:100700000197F1F7F89480E00E94D2006F3F7F4F8D
:100710008F4F9F4F61F41092ED04789480E0A0CF4A
:1007200064E170E080E090E00E94CB02D9CF81E0EC
:100730000E94D2006F3F7F4F8F4F9F4F61F38E011A
:100740000F5F1F4F6E018FEBC81A8EEFD80A78012A
:1007500080E00E94D200F7016083718382839383DB
:1007600081E00E94D200F7016483758386839783BA
:10077000F8E0EF0EF11CEC14FD0451F7789430E032
:1007800020E0F801C080D180E280F380448155816F
:1007900066817781FFEFCF16DF06EF06FF0631F0A7
:1007A0004F3F8FEF58076807780719F41092ED0450
:1007B000B5CFF90183E0F595E7958A95E1F7E45225
:1007C000FB4F8081880FC416D506E606F70610F1A8
:1007D00080832F5F3F4F085F1F4F2832310589F616
:1007E0004091E0042091DC048091DD04280F332740
:1007F000331F8091DE04280F311D8091DF04820FAA
:10080000932F911D99274817190681F681E080934F
:10081000ED0426CF8160DCCFDC0150E0E6EEF0E0B5
:1008200081E0861730F49491490F511D8F5F319606
:10083000F8CF633038F0CD0183709927892B11F4FC
:100840004F5F5F4F9D012D5F3F4F36952795369542
:1008500027956DE671E0A69FC001A79F900DB69FFA
:10086000900D11240197820F931F840F951F0895F7
:10087000EF92FF920F931F93CF93DF93EC01888148
:100880004A81698190E00E940C049C01A8E1B0E0DB
:100890000E94FE1C2B817B018C01E20EF11C011DCC
:1008A000111DA8019701ACE3B0E00E94BC1C2C8193
:1008B0007B018C01E20EF11C011D111DA8019701A5
:1008C0000E94BC1C2D81620F711D811D911D6058FD
:1008D0007C4B8249974CDF91CF911F910F91FF90F4
:1008E000EF90089520917103260F3327331F213293
:1008F0003105ECF42091E703FC0190E080E0243026
:1009000069F082E00895A09171032191AC014F5AE2
:100910005C4FA40FB52FB11D2C930196861798F349
:1009200080917103680F6093710380E0089581E006
:1009300008951092E70381E08093E6031092E103AB
:1009400061E082E10E94470261E083E10E94470288
:10095000E9EBF0E080818E7F808380818D7F8083D2
:1009600088E48093B80085E48093BC000895CF9319
:10097000DF9391E0909350038823B9F0C091B800C1
:10098000D091BA008091BC008A7B8093BC0060E06B
:1009900082E10E94470260E083E10E9447020E94D8
:1009A0009904D093BA00C093B800DF91CF91089515
:1009B0000895E091EE038091ED03E81730F4F0E044
:1009C000E151FC4F808190E008958FEF9FEF0895F3
:1009D0009091EE038091ED032FEF3FEF981748F4CD
:1009E000E92FF0E0E151FC4F208130E09F5F9093D0
:1009F000EE03C90108958091ED039091EE03891BE8
:100A0000990B0895CF92DF92EF92FF920F931F936D
:100A1000CF93DF937C01CB018A0120919D03222398
:100A200089F0EB016B01C40ED51ECC15DD0569F014
:100A30006991D701ED91FC910190F081E02DC70102
:100A40000995F3CF642F0E947204C801DF91CF9102
:100A50001F910F91FF90EF90DF90CF900895CF936B
:100A6000DF931F92CDB7DEB7698320919D032223C8
:100A7000F9F02091C003203258F021E030E0FC0171
:100A80003383228390E080E00F90DF91CF9108952F
:100A900080919E03E82FF0E0E156FC4F998190830E
:100AA0008F5F80939E038093C00381E090E0ECCF42
:100AB00061E0CE0101960E947204F7CF089590E0A4
:100AC00080E00895E6E1F1E0E491E33039F140F4AB
:100AD000E130C1F0E230E1F060E086E00C944702E2
:100AE000E73041F1E83079F1E430B1F780918000EE
:100AF00080628093800084E690E090938B008093E6
:100B00008A00089584B5806884BD84E687BD089511
:100B100084B5806284BD84E688BD0895809180009C
:100B200080688093800084E690E0909389008093B1
:100B3000880008958091B00080688093B00084E6BA
:100B40008093B30008958091B00080628093B000DC
:100B500084E68093B4000895CF93DF93EC0160E0C6
:100B60008E810E94470261E08E810E94470260E010
:100B70008E810E9447028BE891E00197F1F7DF91A7
:100B8000CF910895CF92DF92EF92FF920F931F9330
:100B9000CF93DF936C017C0187E0E80EF11CD0E07D
:100BA000C0E0062F10E0B8010C2E02C075956795C5
:100BB0000A94E2F76170F70181917F010E94470278
:100BC0002196C430D10579F7C601DF91CF911F91ED
:100BD0000F91FF90EF90DF90CF900C94AC05CF92E7
:100BE000DF92EF92FF920F931F93CF93DF93EC016D
:100BF000F62E642F8C810E9447028D818F3F19F061
:100C000060E00E9447020F2D10E08F8584FF25C011
:100C10006E0187E0C80ED11CF12CE12CB8010E2C1E
:100C200002C0759567950A94E2F76170F6018191AB
:100C30006F010E944702FFEFEF1AFF0A88E0E816F3
:100C4000F10461F7CE01DF91CF911F910F91FF90D9
:100C5000EF90DF90CF900C94AC05B80184E07595CF
:100C600067958A95E1F7CE010E94C2056F2DCE01EE
:100C7000DF91CF911F910F91FF90EF90DF90CF9078
:100C80000C94C20540E0682F85EF94E00C94EF05CA
:100C9000CF93DF93823029F490910405986090936C
:100CA0000405809308051092090580E480930A05E5
:100CB00080E180930B0580E580930C0561E08091D5
:100CC000F9040E9475028091FA048F3F19F061E0E7
:100CD0000E94750261E08091FB040E947502C5EFDD
:100CE000D4E09E01255F34408091040584FD0BC053
:100CF00084E090E021962817390744F461E08E8162
:100D00000E947502EECF88E090E0F4CF8BE39DE087
:100D10000197F1F760E08091F9040E94470260E0DA
:100D20008091FB040E9447028091FA048F3F19F0E2
:100D300060E00E9447028091040584FD39C063E0B1
:100D400085EF94E00E94C205CBE4D6E4CE01019782
:100D5000F1F763E085EF94E00E94C2052197F1F777
:100D600063E085EF94E00E94C20583E592E001977D
:100D7000F1F762E085EF94E00E94C20580910405DE
:100D800080620E94420684E0809305058CE00E9408
:100D9000420681E00E9442068BE39FE10197F1F752
:100DA00082E08093060586E0DF91CF910C944206A5
:100DB00080620E9442068BE496E40197F1F78091ED
:100DC000040580620E94420683E592E00197F1F7F4
:100DD0008091040580620E944206D0CF9091080560
:100DE000691710F06FEF690FE62FF0E0EB50FB4F43
:100DF0009489890F80680C94420641E00E94EF05B7
:100E000081E090E00895FB0101900020E9F731971F
:100E1000AF01461B570BDC01ED91FC910280F38181
:100E2000E02D09948F929F92AF92BF920F931F93E0
:100E3000CF93DF93CDB7DEB7A1970FB6F894DEBF9F
:100E40000FBECDBF19A2423008F44AE08E010F5DFB
:100E50001F4F842E912CB12CA12CA50194010E942E
:100E6000F91FE62FB901CA01EA3004F5E05DD801A7
:100E7000EE938D01232B242B252B79F790E080E036
:100E8000109729F0BD0189E294E00E940307A19622
:100E90000FB6F894DEBF0FBECDBFDF91CF911F918B
:100EA0000F91BF90AF909F908F900895E95CDFCF36
:100EB000CF92DF92EF92FF92CF93DF936C01990F65
:100EC000EE08FF08F7FE17C08DE20E94F901EC0161
:100ED00066277727CB016C197D098E099F094AE0A7
:100EE0000E9412078C0F9D1FDF91CF91FF90EF9012
:100EF000DF90CF9008954AE0C701B601DF91CF910E
:100F0000FF90EF90DF90CF900C941207BC0190E01F
:100F100080E04AE00C941207682F70E090E080E0D7
:100F20004AE00C941207CF93DF93BC0189E294E06E
:100F30000E940307EC0162E971E089E294E00E94FB
:100F400003078C0F9D1FDF91CF9108958F929F9281
:100F5000AF92BF92CF92DF92EF92FF92CF93DF9347
:100F60006B017C01AC019B010E94BD1F65E971E032
:100F7000811126C046015701E894B7F82FEF3FEFE3
:100F80004FE75FE7C501B4010E94BD1F81110CC08E
:100F90002FEF3FEF4FE75FE7C501B4010E94981BB9
:100FA00069E971E0181664F02FEF3FEF4FE75FE457
:100FB000C701B6010E94451F181684F46DE971E05F
:100FC00089E294E0DF91CF91FF90EF90DF90CF9096
:100FD000BF90AF909F908F900C9403072FEF3FEF3F
:100FE0004FE75FECC701B6010E94981B87FDE6CF73
:100FF00020E030E0A901C701B6010E94981BD0E0B3
:10100000C0E087FF08C08DE20E94F901EC01F7FA09
:10101000F094F7F8F0942AE037ED43EA5BE3C70178
:10102000B6010E941F1D4B015C010E94241E6B0132
:101030007C010E949D1B9B01AC01C501B4010E9473
:101040001E1D4B015C014AE0C701B6010E94120758
:10105000C80FD91F8EE20E94F901C80FD91F20E0E6
:1010600030E040E251E4C501B4010E94FE1B4B0197
:101070005C010E94241E6B01CB010E948607C80FF1
:10108000D91FB60190E080E00E949D1B9B01AC013E
:10109000C501B4010E941E1D20E030E040E251E491
:1010A0000E94FE1B0E94241ECB010E9486078C0F0B
:1010B0009D1FDF91CF91FF90EF90DF90CF90BF9079
:1010C000AF909F908F900895CF93DF930E94580721
:1010D000EC0162E971E089E294E00E9403078C0F61
:1010E0009D1FDF91CF9108950C940307CF93DF9359
:1010F000EC018091EF049091F004009759F0209159
:10110000F1043091F2042C173D0720F081E0DF91CB
:10111000CF910895BE016F5F7F4F0E9446210097D7
:1011200089F09093F0048093EF04D093F204C0937D
:10113000F1042091F3043091F404232B39F7FC01DE
:101140001082E4CF80E0E3CF0F931F93CF93DF9320
:1011500061157105E9F08C01C091F304D091F4049C
:10116000C60FD71FCE010E947608882391F02091E8
:10117000EF043091F0048091F3049091F404B801ED
:10118000820F931F0E940C22D093F404C093F304A7
:1011900081E0DF91CF911F910F910895FC010190A3
:1011A0000020E9F73197BF01681B790B0C94A40864
:1011B0000F931F93CF93DF938C01EC0109900020D4
:1011C000E9F72197C81BD90BCE010E947608209120
:1011D000EF043091F004811117C02115310519F089
:1011E000C9010E94BD201092F0041092EF041092E9
:1011F000F4041092F3041092F2041092F104DF91BF
:10120000CF911F910F910895D093F404C093F304EC
:10121000B801C901DF91CF911F910F910C940C225D
:101220000F931F93CF93DF9300D000D0CDB7DEB7DD
:101230004AE08E010F5F1F4FB80190E00E94631BD0
:10124000F80101900020E9F73197BF01601B710B95
:10125000C8010E94A4080F900F900F900F90DF918B
:10126000CF911F910F9108950F931F93CF93DF9309
:10127000CDB7DEB728970FB6F894DEBF0FBECDBF4F
:101280004AE08E010F5F1F4FB8010E94631BF801F7
:1012900001900020E9F73197BF01601B710BC80175
:1012A0000E94A40828960FB6F894DEBF0FBECDBFEB
:1012B000DF91CF911F910F9108958F929F92AF92DE
:1012C000BF92CF92DF92EF92FF926B017C012AE5F1
:1012D00034EC41EF54E40E94FE1B9B01AC016BE730
:1012E00074E18AEF92E40E941E1D2BED3FE049E479
:1012F00050E40E94FE1B20E030E044E353E40E94EF
:10130000AB1D0E94A61D4B015C012FE232EA4DEE9F
:101310005AE3C701B6010E94FE1B9B01AC016BE3BF
:101320007AEA8AE19AE30E941E1DA70196010E94B3
:10133000FE1B2FE832E44BE352E40E941F1DA7017D
:1013400096010E94FE1B9B01AC0161E875E98BEAE6
:1013500091E40E941E1D20E030E040E752E40E942C
:10136000AB1D20E030E040ED51E40E941F1D20E065
:1013700030E040E752E40E94AB1D20E030E048EB53
:1013800051E40E941F1D6B017C012CEA35EC47E201
:101390005BE3C501B4010E94FE1B9B01AC01C701C8
:1013A000B6010E941F1DFF90EF90DF90CF90BF907D
:1013B000AF909F908F9008953F924F925F926F925F
:1013C0007F928F929F92AF92BF92CF92DF92EF92D5
:1013D000FF920F931F93CF93DF93CDB7DEB7AA97FA
:1013E0000FB6F894DEBF0FBECDBF382ECB01BA01C9
:1013F00009A31AA32BA33CA3CDA2DEA2EFA2F8A6B9
:1014000024E631EA45E15AE40E941E1D20E03DEA4F
:101410004EE057E40E94AB1D2B013C010E945D0988
:101420004B015C0121ED36EF4EE959E3C301B201F6
:101430000E94FE1B25EC30EA4CE057E40E941F1D81
:10144000A30192010E94FE1B25EB3BE34CE853E411
:101450000E941F1D69A77AA7182F092F6B01E82E7C
:10146000F92E20E030E044EB53E4B601C7010E94BE
:10147000451F18165CF420E030E044EB53E4B6015D
:10148000C7010E941E1D6B017C01EBCF20E030E004
:10149000A901B601C7010E94981B87FF0BC020E07D
:1014A00030E044EB53E4B601C7010E941F1D6B01FD
:1014B0007C01ECCF28E03BE048E054E3C301B201FB
:1014C0000E94FE1B23EE30E540E358E30E941F1DFF
:1014D000A30192010E94FE1B9B01AC016CE870EE1F
:1014E00088E89CE30E941E1D69837A838B839C831A
:1014F0002BED3FE049E450E4C501B4010E94FE1B1E
:1015000020E030E044E353E40E94AB1D698B7A8B0A
:101510008B8B9C8B20E030E040E05FE30E94FE1B61
:101520000E94981F9B01AC010E94FE1B69877A876D
:101530008B879C872BED3FE049E450E4B601C7015F
:101540000E94FE1B20E030E044E353E40E94AB1D08
:101550006B017C01AC019B010E941F1D4B015C01D2
:101560000E944A1F698F7A8F8B8F9C8F28E83AE2FE
:1015700041E259E3C301B2010E94FE1B9B01AC0191
:101580006DE07FE98CE097E40E941E1DA3019201AB
:101590000E94FE1B2AEB33EC42EB53E40E941F1D1A
:1015A0002BED3FE049E450E40E94FE1B20E030E0D8
:1015B00044E353E40E94AB1D6D837E838F83988741
:1015C0000E944A1F6D877E878F87988BC501B40163
:1015D0000E94A61D4B015C0120E030E040E850E491
:1015E000C701B6010E94FE1B0E944A1F6D8F7E8FAD
:1015F0008F8F98A32D813E814F815885CA01B901F3
:101600000E941F1D0E944A1F6D8B7E8B8F8B988FAF
:10161000298D3A8D4B8D5C8D69857A858B859C856E
:101620000E94FE1B6B017C0129813A814B815C8108
:10163000CA01B9010E941F1D2D853E854F8558891D
:101640000E94FE1B9B01AC01C701B6010E941E1D3A
:101650006B017C0120E030E040E850E469817A8150
:101660008B819C810E94FE1B29853A854B855C8578
:101670000E94FE1B2D853E854F8558890E94FE1BCA
:10168000A50194010E94FE1B9B01AC01C701B6019C
:101690000E941F1D6B017C0120E030E040E05FE311
:1016A00069857A858B859C850E94FE1B29853A85F4
:1016B0004B855C850E94FE1B2D8D3E8D4F8D58A164
:1016C0000E94FE1B9B01AC01C701B6010E941E1DBA
:1016D0006B017C0120E030E040EA5FE369817A81C0
:1016E0008B819C810E94FE1B29813A814B815C8108
:1016F0000E94FE1B2D893E894F89588D0E94FE1B3A
:101700009B01AC01C701B6010E941E1D20E030E024
:1017100044E353E40E94FE1B2BED3FE049E450E418
:101720000E94AB1D20E030E040E850E40E94FE1B28
:1017300069877A878B879C8720E030E044EB53E40D
:1017400069A57AA5812F902F0E94451F18167CF459
:1017500020E030E044EB53E469A57AA5812F902F77
:101760000E941E1D69A77AA7182F092FE5CF20E038
:1017700030E0A90169A57AA5812F902F0E94981BBE
:1017800087FF0FC020E030E044EB53E469A57AA561
:10179000812F902F0E941F1D69A77AA7182F092F4C
:1017A000E6CF20E030E040E450E46D817E818F811F
:1017B00098850E94FE1B0E944A1F69837A838B834F
:1017C0009C832AE534EC41EF54E4C301B2010E944A
:1017D000FE1B9B01AC016BE774E18AEF92E40E946F
:1017E0001E1D2BED3FE049E450E40E94FE1B20E06B
:1017F00030E044E353E40E94AB1D0E944A1F4B01BA
:101800005C0169897A898B899C890E944A1F6B01D6
:101810007C012BE831EE4AE657E3C301B2010E9496
:10182000FE1B2DEE37ED4DE95BE30E941F1DA3016A
:1018300092010E94FE1B9B01AC016EEA71E185EFF3
:101840009FE30E941E1D2D853E854F8558890E946D
:10185000FE1B6D837E838F83988726EF3FEC43EDDD
:1018600058E3C301B2010E94FE1B9B01AC016CE571
:1018700078EC83EA9CE30E941E1D2D893E894F89E6
:10188000588D0E94FE1B9B01AC016D817E818F8172
:1018900098850E941F1D2B013C012CEE34E847E97E
:1018A00059E369817A818B819C810E94FE1B9B0197
:1018B000AC01C301B2010E941F1D29A53AA5412F09
:1018C000502F0E941F1D2EE233E74AEB5BE30E947C
:1018D0001E1D2B013C012CE831EA4CE95BE3C501FC
:1018E000B4010E94FE1B9B01AC01C301B2010E9426
:1018F0001E1D2BED3FE049E450E40E94FE1B20E05A
:1019000030E044E353E40E94AB1D0E944A1F9B0158
:10191000AC01C701B6010E94FE1B0E948B1D6B012A
:101920007C012BED3FE049E450E469A17AA18BA151
:101930009CA10E94FE1B20E030E044E353E40E949F
:10194000AB1D4B015C0120E030E044E353E4C701F0
:10195000B6010E94FE1B2BED3FE049E450E40E94DB
:10196000AB1D2BED3FE049E450E40E94FE1B20E05C
:1019700030E044E353E40E94AB1D6B017C01C501E0
:10198000B4010E94A61D2B013C01C701B6010E94B3
:10199000A61D69837A838B839C83C501B4010E9451
:1019A000981F4B015C01C701B6010E94981F6B0193
:1019B0007C0129813A814B815C81C301B2010E9483
:1019C000FE1B9B01AC0169E071E38EE69CEB0E947B
:1019D000AB1D2B013C01A7019601C501B4010E947A
:1019E000FE1B9B01AC01C301B2010E941E1D0E949F
:1019F0000D1D311001C0905820E030E044E353E465
:101A00000E94FE1B2BED3FE049E450E40E94AB1D19
:101A10002DA13EA14FA158A50E941F1D20E030E03E
:101A200040E850E40E94FE1B9B01AC0160E070E0C6
:101A300084E394E40E941E1D29853A854B855C85CC
:101A40000E941E1DAA960FB6F894DEBF0FBECDBF32
:101A5000DF91CF911F910F91FF90EF90DF90CF908A
:101A6000BF90AF909F908F907F906F905F904F90BE
:101A70003F9008954F925F926F927F928F929F92C4
:101A8000AF92BF92CF92DF92EF92FF920F931F938C
:101A9000CF93DF9300D000D01F92CDB7DEB78D83F8
:101AA0005B017A0189014330510534F481E0A81AC1
:101AB000B1088CE0E80EF11CB50164597D4E072E8B
:101AC000000C880B990B0E949F1B20E030EA46EB2C
:101AD00053E40E94FE1B0E94531E2B013C01B701E0
:101AE0006F5F7F4F072E000C880B990B0E949F1B86
:101AF00021E03DEC44EF51E40E94FE1B0E94531E86
:101B00006B017C01C50164E670E00E94E51FCB011A
:101B100062E070E0681B790B072E000C880B990BB4
:101B20000E949F1B69837A838B839C83C50160E934
:101B300071E00E94E51F072E000C880B990B0E9494
:101B40009F1B9B01AC0169817A818B819C810E94E2
:101B50001F1D0E941D1E072E000C880B990B0E9452
:101B60009F1B4B015C01A7019601C301B2010E94BA
:101B70001F1D6B017C01B801110F880B990B0E948E
:101B80009F1B9B01AC01C701B6010E941F1D9B0159
:101B9000AC01C501B4010E941F1D20E030E94EEBED
:101BA00054E40E941E1D69837A838B839C8340903A
:101BB000D6045090D7046090D8047090D9048090D7
:101BC000D2049090D304A090D404B090D5047301B3
:101BD000620195018401AB01BC018D810E94DC0989
:101BE00020E030E044EB54E40E94AB1D29813A81AF
:101BF0004B815C810E941F1DAB01BC0195018D8151
:101C00000E94DC096B017C01AC019B010E94BD1F9D
:101C10006FEF7FEF811127C08091DA049091DB0490
:101C20002CE3289FB001299F700D1124072E000C72
:101C3000880B990B0E949F1BA70196010E941F1DF4
:101C40006B017C0120E030E0A9010E94451F20E0EB
:101C500030E040E05FE387FD1DC0C701B6010E9490
:101C60001F1D0E941D1ECB010F900F900F900F9013
:101C70000F90DF91CF911F910F91FF90EF90DF9028
:101C8000CF90BF90AF909F908F907F906F905F901C
:101C90004F900895C701B6010E941E1DE2CF85ED49
:101CA0008093BC008091E9039091EA03A091EB033B
:101CB000B091EC030796A11DB11D23E0B695A79541
:101CC000979587952A95D1F72091BC0024FD03C0F4
:101CD0001092E70308954091E9035091EA0360915F
:101CE000EB037091EC03452B462B472B69F30097D0
:101CF000A105B10541F025E32A95F1F70000019710
:101D0000A109B109E1CF8091E8030C94B7041F92B7
:101D10000F920FB60F9211242F933F934F935F931F
:101D20006F937F938F939F93AF93BF93EF93FF93A3
:101D300089E294E00E948A01FF91EF91BF91AF91F7
:101D40009F918F917F916F915F914F913F912F91D3
:101D50000F900FBE0F901F9018951F920F920FB605
:101D60000F9211242F938F939F93EF93FF93E09102
:101D70003904F0913A048081E0913F04F0914004ED
:101D800082FD1BC09081809142048F5F8F732091F0
:101D90004304821741F0E0914204F0E0E75DFB4F1D
:101DA000958F80934204FF91EF919F918F912F9196
:101DB0000F900FBE0F901F9018958081F4CF1F9247
:101DC0000F920FB60F9211242F933F938F939F93EF
:101DD000AF93BF938091250490912604A09127048E
:101DE000B09128043091940323E0230F2D3758F548
:101DF0000196A11DB11D2093940380932504909317
:101E00002604A0932704B093280480919503909111
:101E10009603A0919703B09198030196A11DB11D5F
:101E20008093950390939603A0939703B0939803A0
:101E3000BF91AF919F918F913F912F910F900FBEC6
:101E40000F901F90189526E8230F0296A11DB11D33
:101E5000D2CF1F920F920FB60F9211242F933F9360
:101E60004F935F936F937F938F939F93AF93BF93A2
:101E7000EF93FF938091B900887F803609F44AC0C0
:101E8000F0F5883209F4A7C018F5803109F49BC039
:101E9000B8F4882309F4F9C0883009F494C0FF919C
:101EA000EF91BF91AF919F918F917F916F915F91D2
:101EB0004F913F912F910F900FBE0F901F9018954B
:101EC000883109F488C0803251F78093E50314C04B
:101ED000803409F49DC040F48033B9F38833F9F6B7
:101EE0008093E50385ECB0C0803509F485C0883562
:101EF00009F496C0883499F60E944F0ED0CF8839E5
:101F000009F48CC038F5883729F050F4883611F080
:101F1000803729F683E08093E7031092930357C03C
:101F2000883809F47BC0803919F0803809F0B7CFC0
:101F300080919303803208F071C0E091930381E0B7
:101F40008E0F809393038091BB00F0E0ED58FC4F1F
:101F500080833DC0803B39F0E0F4803A09F479C0D9
:101F6000883A09F09CCF84E08093E70310927203D3
:101F700010927103E0919B03F0919C03099580916D
:101F8000710381110FC081E080937103109251039E
:101F900009C0803C09F4A6CF883C09F4A3CF883B54
:101FA00009F07DCFE091720381E08E0F8093720380
:101FB000F0E0EF5AFC4F80818093BB009091720358
:101FC0008091710329C08091E2038093BB0085EC6E
:101FD0008093BC0064CF9091E4038091E303981751
:101FE00058F5E091E40381E08E0F8093E403F0E084
:101FF000EF53FC4F8081E9CFE091E40381E08E0F45
:102000008093E4038091BB00F0E0EF53FC4F8083AA
:102010009091E4038091E3039817C8F285E8D8CF44
:10202000E091E40381E08E0F8093E4038091BB0094
:10203000F0E0EF53FC4F80838091E60381115CCF89
:1020400081E08093E10384EA8093BC001092E7036F
:1020500026CF85EC8093BC001092E7038091930318
:10206000803230F4E0919303F0E0ED58FC4F1082A1
:102070006091930370E0E0919903F0919A0383E7F4
:1020800093E00995109293030ACF1092E50334CFA1
:1020900010922C0410922B0488EE93E0A0E0B0E0A4
:1020A00080932D0490932E04A0932F04B0933004BA
:1020B00026E631E030932A042093290425EC30E011
:1020C000309336042093350424EC30E03093380408
:1020D0002093370420EC30E030933A042093390405
:1020E00021EC30E030933C0420933B0422EC30E0C0
:1020F00030933E0420933D0426EC30E030934004BE
:1021000020933F041092420410924304109244041E
:10211000109245041092C9041092C8048093CA0416
:102120009093CB04A093CC04B093CD0488E791E0C6
:102130009093C7048093C6041092F8041092F70499
:102140008AE891E09093F6048093F5048CE0809304
:10215000F9048FEF8093FA048BE08093FB0485E011
:102160008093FC0484E08093FD0483E08093FE046C
:1021700082E08093FF0410920005109201051092F6
:102180000205109203051092040581E00E944806A2
:102190001092F0041092EF041092F2041092F104E5
:1021A0001092F4041092F30490E080E00E9476080C
:1021B0002091EF043091F00481114DC021153105BB
:1021C00019F0C9010E94BD201092F0041092EF0492
:1021D0001092F4041092F3041092F2041092F1049D
:1021E00087E08093E1048BE08093E204EFE3F1E089
:1021F000E491E093E304EBE2F1E0E491E093E404A2
:1022000080E89EE3A0E0B0E08093E9049093EA04C4
:10221000A093EB04B093EC0489E192E2A9E4B2E468
:102220008093D2049093D304A093D404B093D504A4
:1022300087E695E5A5E9B1E48093D6049093D704A9
:10224000A093D804B093D90482E090E09093DB048B
:102250008093DA0408951092F4041092F30464E970
:1022600071E0C9010E940C22BBCFCF93DF93CDB7A1
:10227000DEB769970FB6F894DEBF0FBECDBF789476
:1022800084B5826084BD84B5816084BD85B582607B
:1022900085BD85B5816085BD80916E00816080932C
:1022A0006E00109281008091810082608093810095
:1022B00080918100816080938100809180008160A5
:1022C000809380008091B10084608093B100809100
:1022D000B00081608093B00080917A008460809328
:1022E0007A0080917A00826080937A0080917A00EF
:1022F000816080937A0080917A00806880937A0070
:102300001092C100E0913904F0913A0482E0808398
:10231000E0913504F09136041082E0913704F09199
:1023200038048FEC808310924104E0913D04F091D9
:102330003E0486E08083E0913B04F0913C04808180
:1023400080618083E0913B04F0913C04808188604F
:102350008083E0913B04F0913C048081806880831D
:10236000E0913B04F0913C0480818F7D808363E9A0
:1023700071E089E294E00E94740861EA71E089E208
:1023800094E00E94740863E971E089E294E00E949D
:10239000740863E971E089E294E00E9474080BE13B
:1023A00014E0FF24F394D801FD928D0181E090E0C8
:1023B0000E94580765E872E089E294E00E94740880
:1023C000B4E005321B0779F763E971E089E294E034
:1023D0000E94740861E089E00E94750261E088E073
:1023E0000E94750261E089E00E94470261E088E096
:1023F0000E94470262E08AE00E94750210921B046C
:1024000010921C0462E08091E1040E9475022FB7D3
:10241000F8948091250490912604A0912704B0910E
:1024200028042FBF805D9740A109B1098093E5047E
:102430009093E604A093E704B093E80487E38093C5
:10244000EE0482E00E94480661E086E00E94750288
:1024500061E086E00E9475020E9462051092EE0320
:102460001092ED0310929E031092C0030E949904F3
:102470008AE091E090939C0380939B038BE091E032
:1024800090939A03809399038E010F5F1F4FBCE3D3
:102490002B2E312CEAE1F1E08491E2E4F1E0E490CA
:1024A000EEE2F1E0F490FF2079F081110E941E022B
:1024B000EF2DF0E0EE0FFF1FEA5FFE4FA591B49104
:1024C0008C91E82281E009F480E0817080931B0404
:1024D00090911F0480912004981709F45BC0EBE1F0
:1024E000F4E08191811156C08481882309F452C09F
:1024F0008FE194E08E179F07A1F710921A041092B3
:1025000019041092180410921704109216041092D5
:10251000150461E086E00E9475020E9462056BE38B
:1025200073E089E294E00E94740880915A019091CE
:102530005B010E9458076BE473E089E294E00E941B
:10254000740880915A0190915B01009709F01EC1B7
:1025500066EB71E089E294E00E947408A1E0B0E0CB
:10256000B0935B01A0935A0160E080E00E94EE0608
:1025700068EB71E085EF94E00E94740864EF71E00D
:1025800080E090E00E94CB0263E971E089E294E090
:102590000E947408E4E2F4E08291818324E0EB314C
:1025A000F207D1F72FB7F894809125049091260473
:1025B000A0912704B09128042FBF80931104909319
:1025C0001204A0931304B093140440915601509147
:1025D00057016091580170915901841B950BA60B0E
:1025E000B70B813E9E42A105B10508F40AC662EC14
:1025F00071E089E294E00E94740882E00E9448063B
:1026000065ED71E089E294E00E9474086091110424
:102610007091120480911304909114044AE00E9476
:10262000120762EE71E089E294E00E947408609102
:1026300056017091570180915801909159014AE0DB
:102640000E94120765EF71E089E294E00E9474082D
:1026500080EE9EE20E94580763E971E089E294E00F
:102660000E9474088091110490911204A0911304A7
:10267000B09114048093560190935701A093580190
:10268000B093590181E080939D0388E68093BF0356
:1026900010929E031092C00360E086EC94E00E94CA
:1026A0002F05B090C003F0E2FB1508F4BAC00E94F9
:1026B000A6026B017C018091E70381118DC082E04D
:1026C0008093E70381E08093E6038FEF8093E50337
:1026D0001092E403B092E303AFE9B3E0E1ECF3E07E
:1026E00080E0B81212C11092E2038091E203806D83
:1026F0008093E2038091E103813009F00AC11092D6
:10270000E1030E94A6026B017C018091E2038093A9
:10271000BB008091E9039091EA03A091EB03B09193
:10272000EC03892B8A2B8B2BA1F00E94A6028090B0
:10273000E9039090EA03A090EB03B090EC036C19CE
:102740007D098E099F0986169706A806B90608F422
:1027500064C08091BC0083FDD8CF85EC8093BC0021
:102760000E94A6026B017C018091E703823009F48C
:10277000D2C08091E5038F3F09F453C08091E503F7
:10278000803209F44EC08091E5034BC0019799F463
:102790006AEB71E089E294E00E947408E2E0F0E004
:1027A000F0935B01E0935A0160E080E00E94EE0646
:1027B0006CEB71E0DFCE6EEB71E089E294E00E9499
:1027C000740810925B0110925A0160E080E00E9450
:1027D000EE0660EC71E0CECE8091E9039091EA03C1
:1027E000A091EB03B091EC03892B8A2B8B2B09F47E
:1027F00062CF0E94A6024090E9035090EA036090E5
:10280000EB037090EC036C197D098E099F09461645
:1028100057066806790608F04ECF8091E8030E94BB
:10282000B70410929E031092C00310929D030E9461
:10283000A6026B017C018091E70381118EC081E0CB
:102840008093E7038093E6039FEF9093E503109254
:10285000E40396E09093E3038093E2038091E20324
:10286000806D8093E2038091E103813009F0E9C239
:102870001092E1030E94A6026B017C018091E203A9
:102880008093BB008091E9039091EA03A091EB0350
:10289000B091EC03892B8A2B8B2BA1F00E94A6020E
:1028A0008090E9039090EA03A090EB03B090EC03D2
:1028B0006C197D098E099F0986169706A806B90628
:1028C00008F46CC08091BC0083FDD8CF85EC809368
:1028D000BC000E94A6026B017C018091E70381305D
:1028E00009F4B1C28091E403873008F0CEC2809130
:1028F000E403A1ECB3E0EFEEF3E090E0981709F405
:1029000052C02D9121939F5FF9CF9D9191938F5F3D
:10291000E8CE85EE23CF8091E9039091EA03A09160
:10292000EB03B091EC03892B8A2B8B2B09F41CCF82
:102930000E94A6028090E9039090EA03A090EB0326
:10294000B090EC036C197D098E099F0986169706D5
:10295000A806B90608F008CF60CF8091E9039091EE
:10296000EA03A091EB03B091EC03892B8A2B8B2B0C
:1029700009F461CF0E94A6028090E9039090EA03D7
:10298000A090EB03B090EC036C197D098E099F09B0
:1029900086169706A806B90608F04DCF8091E80381
:1029A0000E94B70480E01092EE038093ED0386EC62
:1029B00094E00E94E8048F77282F30E044E03595BA
:1029C00027954A95E1F7922F990F990FF22EF91A50
:1029D000FF0CF80E86EC94E00E94E8049C0154E0A1
:1029E000359527955A95E1F72F703327922F990F38
:1029F000990FE22EE91AEE0CE80E86EC94E00E94A4
:102A0000E8049C0164E0359527956A95E1F72F70FD
:102A10003327922F990F990FD22ED91ADD0CD80E89
:102A200086EC94E00E94E80486EC94E00E94E804BE
:102A30009C0174E0359527957A95E1F72F7033273F
:102A4000922F990F990FC22EC91ACC0CC80E86EC82
:102A500094E00E94E8049C01E4E035952795EA950E
:102A6000E1F72F703327922F990F990FB22EB91AD1
:102A7000BB0CB80E86EC94E00E94E8049C01F4E0E4
:102A800035952795FA95E1F72F703327922F990FF7
:102A9000990F291B220F280F822F90E02887B986D3
:102AA000CA86DB86EC86FD868053984F0E94860797
:102AB0008FE20E94F90189850E948C078FE20E94B3
:102AC000F9018A850E948C076FEF71E089E294E03A
:102AD0000E94740888854A85698590E00E940C04EC
:102AE000069667E070E00E94D11F2CE0289FB0019D
:102AF000299F700D11246E5F7E4F89E294E00E9441
:102B0000740864E872E089E294E00E9474088B859E
:102B10000E948C078AE30E94F9018C850E948C0731
:102B20008AE30E94F9018D850E948C0762E971E0B9
:102B300089E294E00E94030762E072E089E294E097
:102B40000E947408CE0108960E9438044AE00E9450
:102B5000120768ED72E089E294E00E947408CE01E9
:102B600008960E94380420E831E541E050E00E94D8
:102B7000F91FCA01B9014AE00E9412078EE192E0F2
:102B80000E949307AA84B12CC984D12CE884F12C2B
:102B900020E3E21A28EFF20A9501A601B70181E0CD
:102BA0000E943A0D4C019501A601B70180E00E94F8
:102BB0003A0D7C0180E292E00E949307C4010E94DA
:102BC0006408C401B1010E94E51F6C01CB010E94A1
:102BD0006408C6010E946408C7010E946408C70116
:102BE000B1010E94E51F7C01CB010E946408C7016E
:102BF0000E94640880915A0190915B0160E08130ED
:102C0000910509F044C180E00E94EE0668EB71E096
:102C100085EF94E00E94740860ED77E080E090E03A
:102C20000E94CB0284E690E09093100480930F04FE
:102C30006AE272E089E294E00E94740880910F04D5
:102C4000909110040E94860764E372E089E294E0A8
:102C50000E94740863E971E089E294E00E947408BC
:102C600086E392E00E94D8084AE0B80180910F0400
:102C7000909110040E946E1BF80101900020E9F76A
:102C80003197BF01601B710BC8010E94A40884E347
:102C900092E00E94CE0860E082E00E94EE06409141
:102CA000F3045091F4046091EF047091F00485EF07
:102CB00094E00E940C0160ED77E080E090E00E94DB
:102CC000CB026BE372E089E294E00E9474088AE030
:102CD00090E00E9458076FE572E089E294E00E945C
:102CE000740880910001909101010E94580763E9E6
:102CF00071E089E294E00E94740864E672E089E27F
:102D000094E00E9474088091190490911A040E9422
:102D1000860763E772E089E294E00E94740880917C
:102D20001704909118040E94860763E971E089E214
:102D300094E00E94740867E872E089E294E00E94DF
:102D400074088091150490E00E94580760E972E0D1
:102D500089E294E00E9474088091160490E00E9439
:102D6000580763E971E089E294E00E947408809159
:102D70000001909101018A3091050CF47CC12091F1
:102D80005A0130915B012230310509F0BBC010922D
:102D90000101109200016EE972E089E294E00E9464
:102DA000740880910F04909110040E94860763E9D3
:102DB00071E089E294E00E94740880910F04909180
:102DC00010048233910508F470C0809115048111BC
:102DD00025C06AEB72E089E294E00E94740860ED1D
:102DE00077E080E090E00E94CB0260E089E00E9402
:102DF00047026CEA7DE080E090E00E94CB0261E057
:102E000089E00E94470260ED77E080E090E00E9458
:102E1000CB0281E080931504109216040E94FD02FB
:102E2000882351F08091E2048C3009F48CC108F0C1
:102E30002EC18B3009F445C180E090E0A0ECBFE7E3
:102E4000A7C185EE44CD8091E9039091EA03A0915A
:102E5000EB03B091EC03892B8A2B8B2B09F43DCD2E
:102E60000E94A6028090E9039090EA03A090EB03F1
:102E7000B090EC036C197D098E099F0986169706A0
:102E8000A806B90608F029CD89CD87E032CD892B77
:102E900031F480E00E94EE0660EC71E0B9CE80E093
:102EA0000E94EE066CEB71E0B3CE4A9708F0B6CF05
:102EB000809116048111B2CF6FEB72E089E294E049
:102EC0000E94740860ED77E080E090E00E94CB0201
:102ED00060E088E00E94470264EE7CE080E090E0E1
:102EE0000E94CB0261E088E00E94470260ED77E03B
:102EF00080E090E00E94CB0281E080931604109263
:102F000015048CCF232B09F0B6C01092010110924A
:102F1000000166EC72E089E294E00E9474088091FE
:102F20000F04909110040E94860763E971E089E222
:102F300094E00E94740880910F04909110048233F1
:102F40009105A8F12091190430911A042830310517
:102F500070F56AEB72E089E294E00E94740860ED1B
:102F600077E080E090E00E94CB0260E089E00E9480
:102F7000470268E978E080E090E00E94CB0261E0DF
:102F800089E00E94470260ED77E080E090E00E94D7
:102F9000CB028091190490911A04019690931A041F
:102FA00080931904109218041092170437CF9C01D3
:102FB0002F5031092B303105A8F5809117049091DD
:102FC0001804049708F02ACF6DED72E089E294E0CE
:102FD0000E94740860ED77E080E090E00E94CB02F0
:102FE00060E088E00E94470268E873E180E090E0DA
:102FF0000E94CB0261E088E00E94470268EB7BE020
:1030000080E090E00E94CB02809117049091180418
:103010000196909318048093170410921A0410924A
:103020001904FCCE0F9708F0F9CE80911704909107
:103030001804049708F0F2CE64EE72E089E294E09E
:103040000E94740860ED77E080E090E00E94CB027F
:1030500060E088E00E94470260E177E280E090E073
:103060000E94CB0261E088E00E94470260ED77E0B9
:1030700080E090E0C7CF0196813191052CF49093C8
:10308000010180930001CACE80E190E0F8CF855124
:10309000823008F0D1CEF090DE046F2D70E0762FF4
:1030A000662766277F778091DF04682B90E080E0B9
:1030B0000E949D1B2DEC3CEC4CEC5DE30E94FE1B42
:1030C0005EC06091DE0470E090E080E00E949D1B95
:1030D0004B015C01F090DF04F7FE0AC0AC019B01DC
:1030E00060E070E080E89FEB0E941E1D4B015C01D8
:1030F0006F2D6F7070E090E080E00E949F1B2DECC0
:103100003CEC4CEC5DE30E94FE1BA50194010E9487
:103110001F1D6E877F87888B998B0E94FD028823F5
:1031200009F46BC08091E2048B3030F08D30A8F14F
:103130008551823008F472C0812C912C80ECA82E2D
:103140008FE7B82E48C0F090DE046F2D70E090E05D
:1031500080E00E949D1B4B015C016091DF046F7059
:1031600070E090E080E00E949F1B2DEC3CEC4CEC6A
:103170005DE30E94FE1BA50194010E941F1D6E8746
:103180007F87888B998BDC01CB01B058F7FEC5CFC8
:103190008E879F87A88BB98BC0CF6091DD0470E0CC
:1031A00090E080E00E949F1B2DEC3CEC4CEC5DE33A
:1031B0000E94FE1B6B017C016091DC0470E090E0DA
:1031C00080E00E949F1B9B01AC01C701B6010E94D9
:1031D0001F1D4B015C012E853F8548895989CA0115
:1031E000B9010E94BD1F811108C0A5019401C5014C
:1031F000B4010E94BD1F882319F18EEE92E00E9457
:10320000930780E090E0892B09F444C90E9476017D
:10321000882309F43CC90E94000039C96091DC048C
:103220007091DD0476276727762790E080E00E9482
:103230009D1B2DEC3CEC4CEC5DE30E94FE1BC9CFCA
:1032400026E636E646EE5FE36E857F8588899989B6
:103250000E94FE1B20E030E040E052E40E941F1D6F
:103260006B017C0120E030E048E852E40E941E1D22
:103270002AE939E949E95FE30E94FE1B2B013C0181
:1032800020E030E044E752E4C701B6010E941F1D70
:103290009B01AC01C301B2010E941F1D2B013C0127
:1032A00022E133E840EC5DE3C501B4010E94FE1B5E
:1032B0009B01AC01C301B2010E941F1D20E030E060
:1032C00040E05FE30E94FE1B2B013C0120E030E068
:1032D0004EE952E40E94451F18160CF013C1A701D5
:1032E0009601C701B6010E94FE1B6A8B7B8B8C8BFB
:1032F0009D8BA5019401C501B4010E94FE1B6E8B3C
:103300007F8B888F998F21E133E243E050E4C7013E
:10331000B6010E94FE1B29E134E849E252E40E9412
:103320001E1D2B013C0126E13BE442E251E4C501B4
:10333000B4010E94FE1B9B01AC01C301B2010E94BB
:103340001F1D2B013C0128E436E246E65EEBC70177
:10335000B6010E94FE1BA50194010E94FE1B9B0169
:10336000AC01C301B2010E941F1D2B013C0120EEE4
:103370003FE040EE5BEB6A897B898C899D890E94E6
:10338000FE1B9B01AC01C301B2010E941F1D2B015A
:103390003C0128EF37E840E65DEB6E897F89888D38
:1033A000998D0E94FE1B9B01AC01C301B2010E94DA
:1033B0001F1D2B013C012CEA3DE041EA5AE36A89DA
:1033C0007B898C899D890E94FE1BA50194010E9426
:1033D000FE1B9B01AC01C301B2010E941F1D2B010A
:1033E0003C0128EC3FE84FE55AE3C701B6010E94D3
:1033F000FE1B2E893F89488D598D0E94FE1B9B0123
:10340000AC01C301B2010E941F1D2B013C0121EF41
:103410003BE845E056EB6A897B898C899D890E944F
:10342000FE1B2E893F89488D598D0E94FE1B9B01F2
:10343000AC01C301B2010E941F1D2B013C0120E021
:1034400030E040E551E4C501B4010E94981B87FFBC
:10345000D6C020E030E040EA52E4C701B6010E9445
:10346000451F87FDCCC020E030E040EE52E4C701AC
:10347000B6010E94981B18160CF410C1A501940106
:1034800060E070E080E591E40E941E1D20E030E0E5
:1034900040E85EE30E94FE1B6A8B7B8B8C8B9D8BCE
:1034A00020E030E04EEB52E4C701B6010E941E1D41
:1034B0006B017C0120E030E0A9010E94451F181635
:1034C0000CF094C0A701960160E070E088E891E4F8
:1034D0000E941E1D2EE33DEE40E75DE30E94FE1BB1
:1034E0000E94581F9B01AC016A897B898C899D8948
:1034F0000E94FE1B9B01AC01C301B2010E941E1D74
:103500002B013C0120E030E040E052E4C301B20175
:103510000E941E1D26E838E34EE05FE30E94FE1B7A
:103520006B017C016DE073E089E294E00E94740815
:10353000C501B4010E94A6076AE173E089E294E044
:103540000E9474086E857F85888999890E94A607E4
:103550006AE273E089E294E00E947408C701B60150
:103560000E94A60784E393E00E94930787E393E019
:103570000E94D808C501B4010E941D1ECB010E9403
:10358000340984E392E00E94CE0885E892E00E942C
:10359000CE08C701B6010E941D1ECB010E9434094E
:1035A00084E393E00E94CE088B850E94100989E392
:1035B00092E00E94CE088C858A3020F48EEB91E058
:1035C0000E94CE088C850E94100961E080E00E9474
:1035D000EE064091F3045091F4046091EF04709171
:1035E000F00485EF94E00E940C010BCE20E030E067
:1035F00048E851E4C701B6010E941F1D6BCF20E0CF
:1036000030E04AEA52E4C501B4010E94451F181691
:103610000CF078CF20E030E040EA52E4C701B60178
:103620000E94451F87FD6ECF20E030E04EEA52E455
:10363000C701B6010E94981B18160CF463CF20E056
:1036400030E04AEA52E4C501B4010E941E1D2DEC8F
:103650003CEC4CEC5DE30E94FE1B6A8B7B8B8C8BFD
:103660009D8BA701960160E070E08EEA92E40E94D3
:103670001E1D2DEC3CEC4CE45EE30E94FE1B9B0106
:10368000AC016A897B898C899D890E94FE1B9B0104
:10369000AC01C301B2010E941F1D32CF20E030E017
:1036A0004AEA52E4C501B4010E94451F18160CF005
:1036B00029CFBACF8091EF049091F004009711F0D8
:1036C0000C94BD200895BB274A3031F4992322F48D
:1036D000BDE2909581959F4F0C946F1BBB27FB011A
:1036E0005527AA27880F991FAA1FA41710F0A41BFB
:1036F00083955051B9F7A05DAA3308F0A95DA19355
:10370000009779F7B111B1931192CB010C94881BFA
:10371000DC01FC01672F71917723E1F7329704C038
:103720007C916D9370836291AE17BF07C8F30895C3
:103730000E94DA1B08F481E00895E89409C097FB21
:103740003EF490958095709561957F4F8F4F9F4F78
:103750009923A9F0F92F96E9BB279395F6958795BC
:1037600077956795B795F111F8CFFAF4BB0F11F47F
:1037700060FF1BC06F5F7F4F8F4F9F4F16C0882326
:1037800011F096E911C0772321F09EE8872F762F5C
:1037900005C0662371F096E8862F70E060E02AF09D
:1037A0009A95660F771F881FDAF7880F9695879589
:1037B00097F90895990F0008550FAA0BE0E8FEEF5E
:1037C00016161706E807F907C0F012161306E407E5
:1037D000F50798F0621B730B840B950B39F40A26DE
:1037E00061F0232B242B252B21F408950A2609F4BC
:1037F000A140A6958FEF811D811D08950E94111C87
:103800000C94821C0E94741C38F00E947B1C20F0D7
:10381000952311F00C946B1C0C94711C11240C94C6
:10382000B61C0E94931C70F3959FC1F3950F50E056
:10383000551F629FF001729FBB27F00DB11D639F62
:10384000AA27F00DB11DAA1F649F6627B00DA11D08
:10385000661F829F2227B00DA11D621F739FB00DAE
:10386000A11D621F839FA00D611D221F749F33271E
:10387000A00D611D231F849F600D211D822F762FB7
:103880006A2F11249F5750409AF0F1F088234AF094
:10389000EE0FFF1FBB1F661F771F881F9150504000
:1038A000A9F79E3F510580F00C946B1C0C94B61C3C
:1038B0005F3FE4F3983ED4F3869577956795B79587
:1038C000F795E7959F5FC1F7FE2B880F911D9695A1
:1038D000879597F9089597F99F6780E870E060E011
:1038E00008959FEF80EC089500240A941616170699
:1038F00018060906089500240A94121613061406E1
:1039000005060895092E0394000C11F4882352F043
:10391000BB0F40F4BF2B11F460FF04C06F5F7F4FFB
:103920008F4F9F4F089557FD9058440F551F59F0E2
:103930005F3F71F04795880F97FB991F61F09F3F9C
:1039400079F087950895121613061406551FF2CFC5
:103950004695F1DF08C0161617061806991FF1CF15
:1039600086957105610508940895E894BB2766273C
:103970007727CB0197F908950E94FE1CA59F900D13
:10398000B49F900DA49F800D911D112408952F9236
:103990003F924F925F926F927F928F929F92AF92DF
:1039A000BF92CF92DF92EF92FF920F931F93CF932C
:1039B000DF93CDB7DEB7CA1BDB0B0FB6F894DEBFC3
:1039C0000FBECDBF09942A88398848885F846E84E9
:1039D0007D848C849B84AA84B984C884DF80EE8033
:1039E000FD800C811B81AA81B981CE0FD11D0FB63C
:1039F000F894DEBF0FBECDBFED010895A29FB001C8
:103A0000B39FC001A39F700D811D1124911DB29F12
:103A1000700D811D1124911D08959F939F770E9421
:103A20006A1E0F90002042F49058A2EA2AED3FE06F
:103A300049E450E40E94361D0C94821C5058BB2768
:103A4000AA270E94361D0C94821C0E94741C38F018
:103A50000E947B1C20F039F49F3F19F426F40C944B
:103A6000711C0EF4E095E7FB0C946B1CE92F0E948F
:103A7000931C58F3BA17620773078407950720F061
:103A800079F4A6F50C94B51C0EF4E0950B2EBA2F24
:103A9000A02D0B01B90190010C01CA01A001112454
:103AA000FF27591B99F0593F50F4503E68F11A1600
:103AB000F040A22F232F342F4427585FF3CF469591
:103AC00037952795A795F0405395C9F77EF41F16B3
:103AD000BA0B620B730B840BBAF09150A1F0FF0F7D
:103AE000BB1F661F771F881FC2F70EC0BA0F621F69
:103AF000731F841F48F4879577956795B795F79559
:103B00009E3F08F0B0CF9395880F08F09927EE0FED
:103B10009795879508959F939F77EEE389379E0742
:103B200028F4E8E6F0E00E94DA1E0CC00E946A1E4B
:103B30009058A2EA2AED3FE049EC5FE30E94361D6F
:103B40000E94821C0F9007FC905808950E94F01E5E
:103B5000E3950C94191F0E94BF1D0C94821C0E94B7
:103B60007B1C58F00E94741C40F029F45F3F29F040
:103B70000C946B1C51110C94B61C0C94711C0E947B
:103B8000931C68F39923B1F3552391F3951B550BBF
:103B9000BB27AA2762177307840738F09F5F5F4F20
:103BA000220F331F441FAA1FA9F335D00E2E3AF05F
:103BB000E0E832D091505040E695001CCAF72BD077
:103BC000FE2F29D0660F771F881FBB1F26173707C8
:103BD0004807AB07B0E809F0BB0B802DBF01FF27FA
:103BE00093585F4F3AF09E3F510578F00C946B1C50
:103BF0000C94B61C5F3FE4F3983ED4F3869577951A
:103C00006795B795F7959F5FC9F7880F911D9695B2
:103C1000879597F90895E1E0660F771F881FBB1F0E
:103C2000621773078407BA0720F0621B730B840BBB
:103C3000BA0BEE1F88F7E09508950E94241E689441
:103C4000B1110C94B61C08950E949B1C88F09F57DC
:103C500098F0B92F9927B751B0F0E1F0660F771FB0
:103C6000881F991F1AF0BA95C9F714C0B13091F0A6
:103C70000E94B51CB1E008950C94B51C672F782FF5
:103C80008827B85F39F0B93FCCF38695779567956B
:103C9000B395D9F73EF490958095709561957F4FD7
:103CA0008F4F9F4F08950E942D1F90F09F3748F42B
:103CB000911116F00C94B61C60E070E080E89FEB68
:103CC000089526F41B16611D711D811D0C948A1E1A
:103CD0000C94A51EDF93CF931F930F938B01EC01E0
:103CE000ECE7F0E00E94B31E0E94821C9801AE0136
:103CF0008B01EC0160E070E080E89FE30E941E1DF4
:103D00000E94581F9801AE010F911F91CF91DF9132
:103D10000C94111C882371F4772321F09850872B81
:103D2000762F07C0662311F499270DC09051862B7A
:103D300070E060E02AF09A95660F771F881FDAF727
:103D4000880F9695879597F908959F3F31F0915088
:103D500020F4879577956795B795880F911D96956F
:103D6000879597F90895DF93CF931F930F93FF9251
:103D7000EF92DF927B018C01689406C0DA2EEF018E
:103D80000E94111CFE01E894A59125913591459161
:103D90005591A6F3EF010E94361DFE019701A8017F
:103DA000DA9469F7DF90EF90FF900F911F91CF9118
:103DB000DF9108959F938F937F936F93FF93EF937A
:103DC0009B01AC010E94FE1BEF91FF910E94B31E6C
:103DD0002F913F914F915F910C94FE1B0C94711C9D
:103DE0000E949B1CD8F3E894E0E0BB279F57F0F0BB
:103DF0002AED3FE049EC06C0EE0FBB0F661F771FB0
:103E0000881F28F0B23A62077307840728F0B25A75
:103E1000620B730B840BE3959A9572F7803830F43C
:103E20009A95BB0F661F771F881FD2F790480C9496
:103E3000A71EEF93E0FF07C0A2EA2AED3FE049EC9E
:103E40005FEB0E94361D0E94821C0F90039401FCC0
:103E50009058E4EAF0E00C94DA1E0E949B1CA0F05B
:103E6000BEE7B91788F4BB279F3860F41616B11D5A
:103E7000672F782F8827985FF7CF86957795679576
:103E8000B11D93959639C8F308950E94DA1B08F482
:103E90008FEF08959F930E94F01E0F9007FCEE5F36
:103EA0000C94191F19F416F40C94711C0C94A51E93
:103EB0000E949B1CB8F39923C9F3B6F39F57550B87
:103EC00087FF0E94C21F0024A0E640EA90018058AC
:103ED0005695979528F4805C660F771F881F20F011
:103EE00026173707480730F4621B730B840B202911
:103EF00031294A2BA69517940794202531254A2766
:103F000058F7660F771F881F20F0261737074807D6
:103F100030F4620B730B840B200D311D411DA095F5
:103F200081F7B901842F9158880F96958795089548
:103F3000DF93D92F0E94F01EE695D7952AED3FE03A
:103F400049E45FE3B33A6207730784079507D7959F
:103F50003AF0A2EA49EC90680E94361D0E94821C49
:103F6000E2ECF0E00E94DA1EDD0F13F00E94C91FA0
:103F7000DD0F0BF49058DF9108950E94DA1B880B37
:103F8000990B089591505040660F771F881FD2F704
:103F900008959B01AC0160E070E080E89FE30C9421
:103FA000AB1DAA1BBB1B51E107C0AA1FBB1FA61755
:103FB000B70710F0A61BB70B881F991F5A95A9F7D2
:103FC00080959095BC01CD01089597FB072E16F4BE
:103FD000009407D077FD09D00E94D11F07FC05D0BF
:103FE0003EF4909581959F4F0895709561957F4F10
:103FF0000895A1E21A2EAA1BBB1BFD010DC0AA1F2A
:10400000BB1FEE1FFF1FA217B307E407F50720F041
:10401000A21BB30BE40BF50B661F771F881F991FBC
:104020001A9469F760957095809590959B01AC0105
:10403000BD01CF010895EE0FFF1F0590F491E02D13
:1040400009940F931F93CF93DF938230910510F45F
:1040500082E090E0E0910F05F091100530E020E063
:10406000B0E0A0E0309799F42115310509F44AC079
:10407000281B390B24303105D8F58A819B816115C5
:10408000710589F1FB0193838283FE0111C0408198
:1040900051810281138148175907E0F048175907E9
:1040A00099F4109761F012960C93129713961C9343
:1040B0003296CF01DF91CF911F910F910895009318
:1040C0000F0510931005F4CF2115310551F042175B
:1040D000530738F0A901DB019A01BD01DF01F801A6
:1040E000C1CFEF01F9CF9093100580930F05CDCF8D
:1040F000FE01E20FF31F819391932250310939831E
:104100002883D7CF20910D0530910E05232B41F444
:1041100020915E0130915F0130930E0520930D05D3
:1041200020915C0130915D012115310541F42DB7DD
:104130003EB74091600150916101241B350BE09125
:104140000D05F0910E05E217F307A0F42E1B3F0BAF
:104150002817390778F0AC014E5F5F4F24173507F9
:1041600048F04E0F5F1F50930E0540930D0581934D
:1041700091939FCFF0E0E0E09CCFCF93DF93009747
:10418000E9F0FC01329713821282A0910F05B091E1
:104190001005ED0130E020E01097A1F4208131817D
:1041A000820F931F20910D0530910E0528173907B6
:1041B00009F061C0F0930E05E0930D05DF91CF91FA
:1041C0000895EA01CE17DF07E8F54A815B819E0179
:1041D00041155105B1F7E901FB83EA8349915991F2
:1041E000C40FD51FEC17FD0761F480819181029601
:1041F000840F951FE90199838883828193819B8332
:104200008A83F0E0E0E012968D919C9113970097DD
:10421000B9F52D913C911197CD010296820F931F14
:1042200020910D0530910E052817390739F6309782
:1042300051F51092100510920F05B0930E05A09342
:104240000D05BCCFD383C28340815181840F951F5C
:10425000C817D90761F44E5F5F4F88819981480F75
:10426000591F518340838A819B81938382832115C7
:10427000310509F0B0CFF0931005E0930F059ECF04
:10428000FD01DC01C0CF13821282D7CFB0E0A0E0E5
:10429000ECE4F1E20C94C91C8C01009751F4CB01C1
:1042A0000E9421208C01C801CDB7DEB7E0E10C945B
:1042B000E51CFC01E60FF71F9C0122503109E217B3
:1042C000F30708F49DC0D901CD91DC911197C61771
:1042D000D70798F0C530D10530F3CE010497861783
:1042E000970708F3C61BD70B2297C193D1936D9301
:1042F0007C93CF010E94BD20D6CF5B01AC1ABD0AD2
:104300004C018C0E9D1EA0910F05B0911005512CF3
:10431000412CF12CE12C109731F580910D059091F5
:104320000E058815990509F05CC04616570608F079
:1043300058C080915C0190915D01009741F48DB768
:104340009EB74091600150916101841B950BE81765
:10435000F90708F055C0F0930E05E0930D05F9013B
:1043600071836083A0CF8D919C91119712966C9070
:10437000129713967C901397A815B90559F56C01FF
:1043800042E0C40ED11CCA14DB0420F1AC014A196E
:104390005B09DA011296159780F06282738251836D
:1043A0004083D9016D937C93E114F10471F0D7013E
:1043B0001396FC93EE93129776CF22968C0F9D1F47
:1043C000F90191838083F301EFCFF0931005E0931F
:1043D0000F0569CF4816590608F42C017D01D30159
:1043E0009ACFCB010E9421207C01009749F0AE01B9
:1043F000B8010E940322C8010E94BD20870153CF4B
:1044000010E000E050CFFB01DC0102C001900D92F2
:1044100041505040D8F70895FB01DC0101900D9206
:104420000020E1F7089510E0C7EAD0E004C0FE01E3
:104430000E941B202196C83AD107C9F7F894FFCFF4
:10444000140053756E6461790000000000004D6F28
:104450006E6461790000000000005475657364614A
:104460007900000000005765646E6573646179002F
:104470000000546875727364617900000000467230
:104480006964617900000000000053617475726412
:1044900061790000000070170000010000001105A4
:1044A000800000000000AC010C013901FE016A012E
:1044B00048015C01000000002F0502055F05D804DB
:1044C000FB04E804D90400000000FD060C015F05B0
:1044D0005E050D0A006E616E00696E66006F76669D
:1044E000007E7E7E7E7E7E5354415254494E477EEE
:1044F0007E7E7E7E7E0031004D0032005300300013
:1045000041000A0A2323204E4F57592043594B4C50
:104510002023230A00637A617320746572617A3AFA
:10452000200020637A617320706F70727A65646E08
:10453000696F3A200020544849434B533A200020E9
:1045400028002073696E6365206D69646E69676811
:104550007420312F312F31393730203D2000640055
:104560004475736B324461776E00666F746F726569
:10457000733A200025007377693A00616B7479778C
:1045800061636A61207A616C757A6A69203D28618D
:104590006B74797761636A612070727A792000297F
:1045A000203D2000785F74696D65735F75702834F5
:1045B000292000202020785F74696D65735F646F27
:1045C000776E283229200073656D695F7570200051
:1045D00020202073656D695F646F776E2000414B0A
:1045E00054595741434A412053454D49206920665B
:1045F0006F746F726573203D20005550200A00646F
:104600006F776E200A00414B54595741434A41206D
:104610006920666F746F726573203D2000444F57A8
:104620004E200A00444F574E207832200A00426C38
:104630006164206F64637A7974752064616E796354
:1046400068207A20637A756A6E696B610057696CBD
:10465000676F746E6F73633A2000252054656D7028
:10466000657261747572613A20004320496E646519
:10467000783A200043200077703A000A5A4D4941A9
:104680004E41205452594255200A00202D3E200010
:107E0000112484B714BE81FFF0D085E080938100F7
:107E100082E08093C00088E18093C10086E0809377
:107E2000C20080E18093C4008EE0C9D0259A86E02C
:107E300020E33CEF91E0309385002093840096BBD3
:107E4000B09BFECF1D9AA8958150A9F7CC24DD24C4
:107E500088248394B5E0AB2EA1E19A2EF3E0BF2EE7
:107E6000A2D0813461F49FD0082FAFD0023811F036
:107E7000013811F484E001C083E08DD089C08234E0
:107E800011F484E103C0853419F485E0A6D080C0E4
:107E9000853579F488D0E82EFF2485D0082F10E0AE
:107EA000102F00270E291F29000F111F8ED06801E7
:107EB0006FC0863521F484E090D080E0DECF843638
:107EC00009F040C070D06FD0082F6DD080E0C81688
:107ED00080E7D80618F4F601B7BEE895C0E0D1E017
:107EE00062D089930C17E1F7F0E0CF16F0E7DF06D8
:107EF00018F0F601B7BEE89568D007B600FCFDCFD4
:107F0000A601A0E0B1E02C9130E011968C91119780
:107F100090E0982F8827822B932B1296FA010C0160
:107F200087BEE89511244E5F5F4FF1E0A038BF0790
:107F300051F7F601A7BEE89507B600FCFDCF97BE46
:107F4000E89526C08437B1F42ED02DD0F82E2BD052
:107F50003CD0F601EF2C8F010F5F1F4F84911BD097
:107F6000EA94F801C1F70894C11CD11CFA94CF0C13
:107F7000D11C0EC0853739F428D08EE10CD085E9AC
:107F80000AD08FE07ACF813511F488E018D01DD067
:107F900080E101D065CF982F8091C00085FFFCCF94
:107FA0009093C60008958091C00087FFFCCF809118
:107FB000C00084FD01C0A8958091C6000895E0E648
:107FC000F0E098E1908380830895EDDF803219F02E
:107FD00088E0F5DFFFCF84E1DECF1F93182FE3DFCA
:107FE0001150E9F7F2DF1F91089580E0E8DFEE27F6
:047FF000FF270994CA
:027FFE00040479
:00000001FF
